:020000040800F2
:1000000000000520D1200008E11F0008E31F0008C0
:10001000E51F0008E71F0008E91F000800000000B6
:1000200000000000000000000000000031D20008C5
:10003000EB1F000800000000D1D2000835D30008F3
:100040002121000821210008212100082121000888
:100050002121000821210008212100082121000878
:100060002121000821210008212100082121000868
:100070002121000821210008212100082121000858
:100080002121000821210008212100082121000848
:100090002121000821210008212100082121000838
:1000A000212100082121000821210008ED1F00085E
:1000B0002121000821210008212100082121000818
:1000C0002121000821210008212100082121000808
:1000D00021210008212100082121000821210008F8
:1000E00021210008212100082121000821210008E8
:1000F00021210008212100082121000821210008D8
:1001000021210008212100082121000821210008C7
:100110002121000821210008F91F000821210008E1
:1001200021210008212100082121000821210008A7
:100130002121000821210008212100082121000897
:100140002121000821210008212100082121000887
:100150002121000821210008212100082121000877
:100160002121000821210008212100082121000867
:1001700021210008212100082121000800000000A1
:100180002121000821210008212100082121000847
:100190002121000821210008212100082121000837
:1001A0000520000821210008112000082121000855
:1001B0002121000821210008212100082121000817
:0801C0002121000821210008A3
:1001D00010B5054C237833B9044B13B10448AFF381
:1001E00000800123237010BD2801002000000000C2
:1001F000106D030808B5034B1BB103490348AFF367
:10020000008008BD000000002C010020106D0308D4
:1002100001F0FF01102A2BDB10F0070F08D010F8B7
:10022000013B013A8B422DD010F0070F42B3F6D1BB
:10023000F0B441EA012141EA014122F007047FF0D4
:1002400000070023F0E80256083C85EA010586EA2B
:10025000010685FA47F5A3FA87F586FA47F6A5FA67
:1002600087F68EB9EED1F0BC01F0FF0102F0070273
:1002700032B110F8013B013A83EA010313B1F8D11E
:100280000020704701387047002D06BF35460338FF
:10029000073815F0010F07D1013015F4807F02BF38
:1002A000013015F4C03F0130F0BC0138704700BF89
:1002B00081F0004102E000BF83F0004330B54FEA17
:1002C00041044FEA430594EA050F08BF90EA020F84
:1002D0001FBF54EA000C55EA020C7FEA645C7FEA17
:1002E000655C00F0E2804FEA5454D4EB5555B8BF3A
:1002F0006D420CDD2C4480EA020281EA030382EAAB
:10030000000083EA010180EA020281EA0303362D3C
:1003100088BF30BD11F0004F4FEA01314FF4801C0F
:100320004CEA113102D0404261EB410113F0004F21
:100330004FEA03334CEA133302D0524263EB4303D8
:1003400094EA050F00F0A780A4F10104D5F1200E76
:100350000DDB02FA0EFC22FA05F2801841F10001D1
:1003600003FA0EF2801843FA05F359410EE0A5F1A5
:1003700020050EF1200E012A03FA0EFC28BF4CF0D6
:10038000020C43FA05F3C01851EBE37101F000458C
:1003900007D54FF0000EDCF1000C7EEB00006EEB99
:1003A0000101B1F5801F1BD3B1F5001F0CD3490823
:1003B0005FEA30004FEA3C0C04F101044FEA44527A
:1003C00012F5800F80F09A80BCF1004F08BF5FEA01
:1003D000500C50F1000041EB045141EA050130BDE1
:1003E0005FEA4C0C404141EB0101013C28BFB1F5F3
:1003F000801FE9D291F0000F04BF01460020B1FA3E
:1004000081F308BF2033A3F10B03B3F120020CDA10
:100410000C3208DD02F1140CC2F10C0201FA0CF0EE
:1004200021FA02F10CE002F11402D8BFC2F1200C53
:1004300001FA02F120FA0CFCDCBF41EA0C01904009
:10044000E41AA2BF01EB0451294330BD6FEA040452
:100450001F3C1CDA0C340EDC04F11404C4F120023D
:1004600020FA04F001FA02F340EA030021FA04F34F
:1004700045EA030130BDC4F10C04C4F1200220FAA6
:1004800002F001FA04F340EA0300294630BD21FAE4
:1004900004F0294630BD94F0000F83F4801306BFAA
:1004A00081F480110134013D4EE77FEA645C18BF9E
:1004B0007FEA655C29D094EA050F08BF90EA020F35
:1004C00005D054EA000C04BF1946104630BD91EA2D
:1004D000030F1EBF0021002030BD5FEA545C05D130
:1004E0004000494128BF41F0004130BD14F580046F
:1004F0003CBF01F5801130BD01F0004545F0FE41E3
:1005000041F470014FF0000030BD7FEA645C1ABF17
:10051000194610467FEA655C1CBF0B46024650EA4E
:10052000013406BF52EA033591EA030F41F400217A
:1005300030BD00BF90F0000F04BF0021704730B500
:100540004FF4806404F132044FF000054FF00001D5
:1005500050E700BF90F0000F04BF0021704730B596
:100560004FF4806404F1320410F0004548BF40426B
:100570004FF000013EE700BF42004FEAE2014FEAC0
:1005800031014FEA02701FBF12F07F4393F07F4F9B
:1005900081F06051704732F07F4208BF704793F09E
:1005A0007F4F04BF41F40021704730B54FF46074B1
:1005B00001F0004521F000411CE700BF50EA0102B4
:1005C00008BF704730B54FF000050AE050EA01025D
:1005D00008BF704730B511F0004502D5404261EBCD
:1005E00041014FF4806404F132045FEA915C3FF40E
:1005F000D8AE4FF003025FEADC0C18BF03325FEAAB
:10060000DC0C18BF033202EBDC02C2F1200300FA5B
:1006100003FC20FA02F001FA03FE40EA0E0021FA80
:1006200002F11444BDE600BF70B54FF0FF0C4CF46E
:10063000E06C1CEA11541DBF1CEA135594EA0C0F20
:1006400095EA0C0F00F0DEF82C4481EA030621EA5B
:100650004C5123EA4C5350EA013518BF52EA033596
:1006600041F4801143F4801338D0A0FB02CE4FF048
:100670000005E1FB02E506F00042E0FB03E54FF078
:100680000006E1FB03569CF0000F18BF4EF0010E70
:10069000A4F1FF04B6F5007F64F5407404D25FEA6C
:1006A0004E0E6D4146EB060642EAC62141EA55511F
:1006B0004FEAC52040EA5E504FEACE2EB4F1FD0C61
:1006C00088BFBCF5E06F1ED8BEF1004F08BF5FEADF
:1006D000500E50F1000041EB045170BD06F0004691
:1006E00046EA010140EA020081EA0301B4EB5C043E
:1006F000C2BFD4EB0C0541EA045170BD41F4801136
:100700004FF0000E013C00F3AB8014F1360FDEBF5A
:10071000002001F0004170BDC4F10004203C35DA36
:100720000C341BDC04F11404C4F1200500FA05F3B9
:1007300020FA04F001FA05F240EA020001F000425A
:1007400021F0004110EBD37021FA04F642EB0601D0
:100750005EEA430E08BF20EAD37070BDC4F10C04FA
:10076000C4F1200500FA04F320FA05F001FA04F2BE
:1007700040EA020001F0004110EBD37041F10001AA
:100780005EEA430E08BF20EAD37070BDC4F12005B5
:1007900000FA05F24EEA020E20FA04F301FA05F21D
:1007A00043EA020321FA04F001F0004121FA04F2C5
:1007B00020EA020000EBD3705EEA430E08BF20EA95
:1007C000D37070BD94F0000F0FD101F000464000CF
:1007D00041EB010111F4801F08BF013CF7D041EA51
:1007E000060195F0000F18BF704703F00046520055
:1007F00043EB030313F4801F08BF013DF7D043EA26
:100800000603704794EA0C0F0CEA135518BF95EADB
:100810000C0F0CD050EA410618BF52EA4306D1D162
:1008200081EA030101F000414FF0000070BD50EA81
:10083000410606BF1046194652EA430619D094EA0B
:100840000C0F02D150EA013613D195EA0C0F05D1F5
:1008500052EA03361CBF104619460AD181EA030149
:1008600001F0004141F0FE4141F470014FF0000001
:1008700070BD41F0FE4141F4780170BD70B54FF09C
:10088000FF0C4CF4E06C1CEA11541DBF1CEA13551C
:1008900094EA0C0F95EA0C0F00F0A7F8A4EB0504FE
:1008A00081EA030E52EA03354FEA013100F08880F5
:1008B0004FEA03334FF0805545EA131343EA1263BE
:1008C0004FEA022245EA111545EA10654FEA002673
:1008D0000EF000419D4208BF964244F1FD0404F52C
:1008E000407402D25B084FEA3202B61A65EB030588
:1008F0005B084FEA32024FF480104FF4002CB6EB45
:10090000020E75EB030E22BFB61A754640EA0C00C4
:100910005B084FEA3202B6EB020E75EB030E22BF04
:10092000B61A754640EA5C005B084FEA3202B6EB45
:10093000020E75EB030E22BFB61A754640EA9C0004
:100940005B084FEA3202B6EB020E75EB030E22BFD4
:10095000B61A754640EADC0055EA060E18D04FEA92
:10096000051545EA16754FEA06164FEAC30343EA32
:1009700052734FEAC2025FEA1C1CC0D111F4801FFF
:100980000BD141EA00014FF000004FF0004CB6E7F8
:1009900011F4801F04BF01430020B4F1FD0C88BF97
:1009A000BCF5E06F3FF6AFAEB5EB030C04BFB6EBA2
:1009B000020C5FEA500C50F1000041EB045170BD95
:1009C0000EF0004E4EEA113114EB5C04C2BFD4EBC2
:1009D0000C0541EA045170BD41F480114FF0000E46
:1009E000013C90E645EA060E8DE60CEA135594EAC2
:1009F0000C0F08BF95EA0C0F3FF43BAF94EA0C0FC5
:100A00000AD150EA01347FF434AF95EA0C0F7FF439
:100A100025AF104619462CE795EA0C0F06D152EA8D
:100A200003353FF4FDAE1046194622E750EA410671
:100A300018BF52EA43067FF4C5AE50EA41047FF482
:100A40000DAF52EA43057FF4EBAE12E74A0011D234
:100A500012F5001211D20DD56FF47873B3EB625218
:100A60000ED44FEAC12343F0004343EA505323FA24
:100A700002F070474FF00000704750EA013002D199
:100A80004FF0FF3070474FF0000070474FEA4102CF
:100A9000B2F1E04324BFB3F5001CDCF1FE5C0DD9DC
:100AA00001F0004C4FEAC0024CEA5070B2F1004F26
:100AB00040EB830008BF20F00100704711F0804F29
:100AC00021D113F13872BCBF01F00040704741F4EE
:100AD00080114FEA5252C2F11802C2F1200C10FAF2
:100AE0000CF320FA02F018BF40F001004FEAC123D6
:100AF0004FEAD32303FA0CFC40EA0C0023FA02F37A
:100B00004FEA4303CCE77FEA625307D150EA01334F
:100B10001EBF4FF0FE4040F44000704701F000401F
:100B200040F0FE4040F40000704700BF7BB972B94E
:100B30000029BEBF00204FF0004106E008BF00289A
:100B40001CBF6FF000414FF0FF3000F0D3B9ADF1A2
:100B5000080C6DE904CE002909DB002B1ADB00F03C
:100B60004DF8DDF804E0DDE9022304B070474042AF
:100B700061EB4101002B1BDB00F040F8DDF804E0E5
:100B8000DDE9022304B0404261EB4101524263EBD4
:100B900043037047524263EB430300F02FF8DDF844
:100BA00004E0DDE9022304B0404261EB41017047FB
:100BB000524263EB430300F021F8DDF804E0DDE985
:100BC000022304B0524263EB4303704753B94AB95E
:100BD000002908BF00281CBF4FF0FF314FF0FF3045
:100BE00000F088B9ADF1080C6DE904CE00F006F80C
:100BF000DDF804E0DDE9022304B070472DE9F04799
:100C0000089D8E4604468846002B4AD18A421746E4
:100C100062D9B2FA82F64EB1C6F1200301FA06F8A3
:100C200020FA03F3B74043EA0808B4404FEA174EEE
:100C30001FFA87FCB8FBFEF1230C0EFB118843EA78
:100C4000084301FB0CF29A4209D9FB1801F1FF306D
:100C500080F0EA809A4240F2E78002393B449A1AD7
:100C6000A3B2B2FBFEF00EFB102243EA024300FBEC
:100C70000CFC9C4509D9FB1800F1FF3280F0D680AE
:100C80009C4540F2D3803B44023840EA0140A3EB4C
:100C90000C0300211DB1F3400022C5E90032BDE87C
:100CA000F0878B4205D90DB1C5E900010021084646
:100CB000F5E7B3FA83F1002946D1734502D38242A6
:100CC00000F20581841A6EEB030201209046002D8C
:100CD000E5D0C5E90048E2E7002A00F09080B2FACA
:100CE00082F6002E40F0A4808A1A030C4FEA174EB9
:100CF00080B2BCB20121B2FBFEFC0EFB1C2243EA17
:100D0000024304FB0CF29A4207D9FB180CF1FF389E
:100D100002D29A4200F2E080C4469B1AB3FBFEF274
:100D20000EFB123340EA034302FB04F49C4207D952
:100D3000FB1802F1FF3002D29C4200F2CA80024648
:100D40001B1B42EA0C40A5E7C1F120068B4022FAAA
:100D500006F71F430EFA01F420FA06F32EFA06FEF8
:100D60004FEA1749234300FA01F81FFA87FCBEFB3C
:100D7000F9F01C0C09FB10EE44EA0E4400FB0CFEDB
:100D8000A64502FA01F209D93C1900F1FF3A80F0B8
:100D90009C80A64540F2998002383C44A4EB0E04A6
:100DA0001FFA83FEB4FBF9F309FB13444EEA044433
:100DB00003FB0CFCA44508D93C1903F1FF3E80F06D
:100DC0008280A4457FD9023B3C4443EA0040A4EB27
:100DD0000C04A0FB02EC64457346E14662D35FD08D
:100DE0005DB1B8EB030264EB090404FA06F622FADB
:100DF00001F31E43CC40C5E9006400214FE7B1FB7D
:100E0000F2FC010C41EA0E4180B240EA01423B464D
:100E100038463C46B846BE462026B1FBF7F1A2EB69
:100E2000080241EA0C4166E7014618E710462CE744
:100E3000C6F120022EFA02F3B740B14020FA02F2C6
:100E40004FEA174E0A43B3FBFEF8BCB20EFB183351
:100E5000110C41EA034108FB04F9B04089454FEA0F
:100E6000104380B23ED9791808F1FF3C01D2894580
:100E70001FD8A1EB0901B1FBFEF909FB04F80EFB39
:100E8000191192B242EA0142424529D2BA1809F137
:100E9000FF31C4D24245C2D2A9F102013A44BEE7B1
:100EA000F0459DD2BEEB02036CEB070C0138E14626
:100EB00096E7A7EB09094944A8F1020CB1FBFEF93A
:100EC00009FB04F8DBE773467FE7504666E7084610
:100ED000FDE63B44023A33E7ACF1020C3B441CE72D
:100EE00049469CE7A1EB0901C446B1FBFEF909FBA9
:100EF00004F8C4E7704700BF014900200DF0A6BB0D
:100F0000CD25000808B564200BF0A0FDFBE700002C
:100F10004FF0010AC04EC14DC14C80B5DFF81483BB
:100F2000C04F98F80030002B72D1012204213046C6
:100F300009F0D2FB00224FF40041284609F0CCFB17
:100F400000224FF48071204609F0C6FB00224FF4C6
:100F50000041204609F0C0FB387808F0DDFF002290
:100F60000421304609F0B8FB01224FF40041284625
:100F700009F0B2FB00224FF48071204609F0ACFB6F
:100F800000224FF40041204609F0A6FB387808F013
:100F9000C3FF00220421304609F09EFB00224FF4DB
:100FA0000041284609F098FB01224FF48071204649
:100FB00009F092FB00224FF40041204609F08CFB1F
:100FC000387808F0A9FF00220421304609F084FB9C
:100FD00000224FF40041284609F07EFB00224FF426
:100FE0008071204609F078FB01224FF40041204631
:100FF00009F072FB387808F08FFF4FF40071284633
:1010000009F064FB884B187000288ED188F800A086
:10101000DFF824820023A8F80030002204213046A3
:1010200009F05AFB00224FF40041284609F054FB16
:1010300000224FF48071204609F04EFB01224FF44C
:101040000041204609F048FB387808F065FF00228F
:101050000421304609F040FB00224FF400412846AD
:1010600009F03AFB01224FF48071204609F034FB6D
:1010700000224FF40041204609F02EFB387808F09A
:101080004BFF00220421304609F026FB01224FF4D9
:101090000041284609F020FB00224FF480712046D1
:1010A00009F01AFB00224FF40041204609F014FB1E
:1010B000387808F031FF01220421304609F00CFB9A
:1010C00000224FF40041284609F006FB00224FF4AD
:1010D0008071204609F000FB00224FF400412046B9
:1010E00009F0FAFA387808F017FFB8F800304FF432
:1010F000807128460133A8F8003009F0E7FA4B4B1D
:101100001870002889D14021494809F0EAFAD22311
:10111000A8F8003001220421304609F0DDFA00224F
:101120004FF40041284609F0D7FA00224FF48071AD
:10113000204609F0D1FA00224FF40041204609F080
:10114000CBFA387808F0E8FE00220421304609F096
:10115000C3FA01224FF40041284609F0BDFA0022EB
:101160004FF48071204609F0B7FA00224FF4004195
:10117000204609F0B1FA387808F0CEFE00220421AA
:10118000304609F0A9FA00224FF40041284609F040
:10119000A3FA01224FF48071204609F09DFA002243
:1011A0004FF40041204609F097FA387808F0B4FE71
:1011B00000220421304609F08FFA00224FF400414A
:1011C000284609F089FA00224FF48071204609F080
:1011D00083FA01224FF40041204609F07DFA387865
:1011E00008F09AFEB8F800304FF400712846013B31
:1011F000A8F8003009F06AFA0B4B814618700028F5
:1012000088D140210A4809F06CFA0120A8F8009022
:101210000BF01CFC82E600BF0020024000040240EC
:1012200000000240040000204A0100204901002083
:1012300000140240480100204C0100200000000082
:101240002DE988483A4E3B4F37A5D5E90045DFF8F0
:10125000089101224FF48041384609F03DFAD9F84F
:10126000003000225A625A6A092AFCD9DFF8EC8061
:1012700000224FF48041384609F02EFA08F046FE6D
:10128000C8F800000221304609F020FA38B9D8F831
:10129000003003F10A0A08F039FE8245F2D8D9F885
:1012A0000030DFF8BCA05B6ACAF8003008F02EFE00
:1012B000C8F800000221304609F008FA38B1D8F821
:1012C000003003F1320B08F021FE8345F2D8D9F843
:1012D0000030194A5B6ADAF800001360181AFFF749
:1012E00029F922462B46FFF79FF90022134BFFF7FF
:1012F0009BF9FFF7ABFB124B80B2124A12491880E0
:10130000124B1870124B1B881370DBB243EA002398
:1013100010480B80002300681A460BF05FFD642024
:101320000BF094FB93E700BF9CC420B07268A13F10
:101330000020024000040240500100200000E03F75
:101340004E010020440100204601002045010020FC
:101350004C01002070010020C00100205801002035
:1013600054010020064C074D08B50023294620688B
:101370001A460BF033FD01200BF068FBF5E700BFC8
:101380006C0100204C01002010B594B01022002107
:1013900002240AA834F022FD1422002103A834F00C
:1013A0001DFD1D4B192108A81A6C42F080521A64C9
:1013B0001B6C03F080530193019B184B1A6842F495
:1013C00040421A6001221B6803F440430293029BCF
:1013D0004FF48033CDE908234FF48003CDE90E4369
:1013E0004FF4D873CDE91244CDE910130AF0F6F9A1
:1013F00009F09AFE0F2300200721CDE903344FF4B2
:10140000A053CDE905034FF4805303A807930AF0D6
:10141000CDFB14B010BD00BF00380240007000408A
:101420002DE980489DB00021102201250FA800243D
:1014300034F0D4FC08F0E6FD4FF01042C54B0FA885
:10144000ADF83C501294CDE9102308F0F9FD1723B4
:101450000FA88DF83D508DF844308DF84A5008F0B3
:10146000EFFD042008F0DCFDBFF34F8FBFF36F8F5B
:10147000B94AC2F85042BFF34F8FBFF36F8F536921
:1014800043F400335361BFF34F8FBFF36F8FC2F844
:101490008440BFF34F8FD2F8803043F6E074C3F33B
:1014A000C900C3F34E335B0103EA0406014646EA72
:1014B00081750139C2F86052F9D2203B13F1200F37
:1014C000F2D1BFF34F8F536943F480335361BFF3BD
:1014D0004F8FBFF36F8F08F0FBFC0024FFF754FF22
:1014E000142200210FA834F079FC9C4B4CF210011F
:1014F0009B481A6B012610274FF0030942F0100297
:101500004FF002084FF0400B964D1A634FF0040A5B
:101510001A6B02F010020192019A1A6B42F0020259
:101520001A631A6B02F002020292029A1A6B42F0DC
:1015300001021A631A6B02F001020392039A1A6BFA
:1015400042F040021A631A6B02F040020492049ABD
:101550001A6B42F400721A631A6B02F4007205925D
:10156000059A1A6B42F008021A631A6B02F008021D
:101570000692069A1A6B42F480621A631A6B02F49E
:1015800080620792079A1A6B42F480721A631A6B90
:1015900002F480720892089A1A6B42F020021A63D1
:1015A0001A6B02F020020992099A1A6B42F080022B
:1015B0001A631A6B02F080020A920A9A1A6B42F0BE
:1015C00004021A6300221B6B03F004030B930B9BB2
:1015D00009F082F800224FF40141634809F07CF8D9
:1015E00000220421614809F077F8012208216048AF
:1015F00009F072F801224FF480515C4809F06CF850
:101600000022C0215B4809F067F8002240215A48B7
:1016100009F062F84FF440730FA951481194CDE9D5
:101620000F3408F0D5FE0FA94D48CDF8489011941D
:10163000CDE90F7608F0CCFE4FF401430FA94A48DC
:10164000CDE90F36CDE9114408F0C2FE41F20403A2
:101650000FA94648CDE90F36CDE9114408F0B8FE90
:1016600008230FA94248CDE90F36CDE9114408F00F
:10167000AFFE0FA93D481194CDE90F8408F0A8FEF4
:10168000C0220FA93B48CDE90F26CDE9114908F04A
:101690009FFE0FA93848CDE90FB6CDE9114908F0F2
:1016A00097FE4FF440420FA92D48CDE90F26CDE912
:1016B000114408F08DFE3148314A84800260066290
:1016C000C0E9054408F0E8FC2E4A2846C5E9002494
:1016D000C5E90244C5E90A44C5E90C4408F07BFDAC
:1016E00031462846284D08F02DFE284A4FF48053F5
:1016F000C5F814B0DFF898B00FA92846AC60AC620A
:10170000CDF83C80C5E900244FF4C072C5E9062439
:101710004FF40062C5E908230722C5E903A7CDE914
:10172000102ACDE91229CDE914880AF095FD594611
:101730004FF6FF7228460094CBE90067CBE90264BC
:101740000AF0AAFD304608F0E7FB59464FF6FF7253
:1017500028461FE01B00000300ED00E000380240B7
:101760000004024054030020000002400020024018
:1017700000280240000802400018024094030020A4
:101780000030024000B002408C010020400100A067
:101790005C010020CBE90087CBE902640AF07CFD04
:1017A000082359464FF6FF722846CBE90097CBE94C
:1017B00002340AF071FD4FF40C734FF6FF72594674
:1017C00000932846009B4FF48069CBF80860CBF863
:1017D0000C30CBE900A70AF05FFD40F22B712846E0
:1017E000764D0AF078FD4FF0204343F2D202642098
:1017F000DFF844B21A6008F08FFB714B714A28463B
:101800002C62C5E90023C5E90246C5E90444C5E9DF
:10181000064409F0A2F82146284609F0C5FA2146F7
:101820002846694D09F0E6FA342221460FA834F023
:10183000D5FA664B2821352040F2152C40F2352E82
:101840002C61AC8685F83640C5E900340923C5E92A
:1018500005130B23C5E9070340F21B132846C5E90E
:1018600009C340F21D13C5E90244C5E90BE309F0C1
:101870005DFBFF214FF4F0724FF4887328460F94FC
:101880001A93ADF86C408DF86E40514DCDE91414AB
:101890000521CDE916914FF04041CDE91024CDE965
:1018A000181222460FA9CDE9123809F0F3FB494876
:1018B000494B0462C0E90036C0E902A74FF4A063B7
:1018C0004FF0180AC0E90644C0E904A309F044FD3A
:1018D00008F07EF908F0C4F85C2008F081FB00F005
:1018E000F5FB3A4621460FA834F078FAD72328466C
:1018F0000E94AC60C5E900B34FF6FF73CDE90C441C
:10190000C5E90334C5E905440AF06EFE4FF480537F
:101910000FA928460F930AF0A1FE0CA928460E94A1
:10192000CDE90C440AF032FF00F0FCFB00F0F9FBBB
:1019300028460AF0E9FC22464FF48041274808F087
:10194000CBFE0AF0F7FF264A414638460BF000FA74
:10195000244B254A4146186038460BF0F9F9234BD1
:10196000234A2146186023480BF01EF8224B234AD5
:101970002146186022480BF017F8224B224A2146D4
:10198000186022480BF010F8214B224A21461860BB
:1019900021480BF009F8214B214A214618602148C3
:1019A0000BF002F8204B214A2146186020480AF02B
:1019B000FBFF204B18600AF0D7FFFEE70003002072
:1019C00068474020005C0040580200200068014049
:1019D000C00100200C020020001000A00004024002
:1019E000349D0308700100201C9D03086C01002039
:1019F000009E0308050F000888010020DC9D0308F5
:101A00003321000884010020B89D0308D93B000859
:101A100080010020949D0308110F00087C01002024
:101A2000709D030841120008780100204C9D0308B6
:101A30006513000874010020000001400268034B98
:101A40009A4201D108F056BA704700BF001000401A
:101A5000704700000D4B82B00F216FF001001A6C2F
:101A600042F080521A641A6C02F080520092009A7E
:101A70005A6C42F480425A6400225B6C03F4804347
:101A80000193019B02B008F06BBA00BF003802401E
:101A9000026882B0084B9A420BD1D3F8302803F584
:101AA000006342F480521A631B6B03F4805301936A
:101AB000019B02B0704700BF003002400E4B07B5DB
:101AC00002689A4215D1A3F5F04305215A201A6BFA
:101AD00042F400021A6300221B6B03F4000301931B
:101AE000019B08F03DFA5A2003B05DF804EB08F0C2
:101AF00069BA03B05DF804FB00B0024010B5A8B0AD
:101B000004461422002102A834F068F9842200213E
:101B100007A834F063F92268174B9A422AD14FF490
:101B2000803307A807930AF00DF908B1FFF790FF7B
:101B3000124C4FF4C07201211148236B43F0800313
:101B40002363236B03F080030093009B1223CDE9F2
:101B500002230323CDE90413042302A9069308F00A
:101B600037FC236C43F400032364236C03F4000369
:101B70000193019B28B010BD005C0040003802407A
:101B8000001C0240026808B5094B9A420FD1094A6D
:101B900080210948136C23F40003136408F0FCFC53
:101BA0004FF480710448BDE8084008F0F5BC08BD5A
:101BB000005C004000380240001C024070B5ACB030
:101BC00004461422002106A834F008F984220021DA
:101BD0000BA834F003F92268464B9A4240F0878004
:101BE00008230BA80B93642310930223CDE9113330
:101BF000012315930AF0A6F808B1FFF729FF3E4B21
:101C0000002402250E265A6C06A93C4842F0806248
:101C10005A645A6C02F080620092009A1A6B42F089
:101C200010021A631A6B02F010020192019A1A6BE9
:101C300042F400721A631A6B02F400720292029A62
:101C40001A6B42F480621A631A6B02F48062039288
:101C5000039A1A6B42F040021A631A6B02F04002B8
:101C60000492049A1A6B42F480721A631B6B03F499
:101C700080730593059B1023CDE90635CDE9084413
:101C80000A9608F0A5FB4EF6FF7306A91C480A96B3
:101C9000CDE90635CDE9084408F09AFBF72306A9FB
:101CA00018480A96CDE90635CDE9084408F090FBBE
:101CB0004FF4805306A91448CDE906350923CDE930
:101CC00008440A9308F084FB4FF4464306A90F48E2
:101CD0000A96CDE90635CDE9084408F079FB58208D
:101CE0002246052108F03CF9582008F06BF92CB089
:101CF00070BD00BF00680140003802400010024083
:101D00000024024000280240001802400020024047
:101D1000142200212DE9F0418AB004460DEB0200A7
:101D200034F05CF822682C4B9A4251D12B4B02259F
:101D3000032409269A6B4FF0040805A9284842F0AD
:101D4000020200279A639A6B02F002020192019A42
:101D50001A6B42F010021A631A6B02F01002029220
:101D6000029A1A6B42F002021A631A6B02F0020224
:101D70000392039A1A6B42F008021A631B6B03F07A
:101D800008030493049BCDE90585CDE9084608F0D6
:101D90001FFB402305A91348CDE905350A23CDE9EA
:101DA0000774099308F014FB05A90E480996CDE9BC
:101DB0000585CDE9077408F00BFB4FF4605305A9C6
:101DC00009480996CDE90535CDE9077408F000FB0F
:101DD0000AB0BDE8F08100BF001000A0003802404A
:101DE0000010024000040240000C0240026808B5E6
:101DF0000B4B9A4213D10B4A04210B48936B23F0EF
:101E00000203936308F0C8FB4421084808F0C4FBB0
:101E10004FF460510648BDE8084008F0BDBB08BD5E
:101E2000001000A0003802400010024000040240F0
:101E3000000C02400E4B07B502689A4215D103F51B
:101E40009C3305211B205A6C42F001025A64002287
:101E50005B6C03F001030193019B08F081F81B20E8
:101E600003B05DF804EB08F0ADB803B05DF804FB17
:101E700000000140F0B5002387B00393294B1E6892
:101E8000002E4DD10122022703250C241A6001A93E
:101E9000254B26489A6B42F001029A639B6B03F034
:101EA00001030093009B4FF68373CDE90454CDE901
:101EB000013708F08DFA48F2331301A91C48059444
:101EC000CDE90137CDE9036508F082FA4CF20373DE
:101ED00001A918480594CDE90137CDE9036508F05B
:101EE00077FA4FF63F0301A913480594CDE901376E
:101EF000CDE9036508F06CFA282301A90F48059481
:101F0000CDE90137CDE9036508F062FA082301A99C
:101F10000B480594CDE90137CDE9036508F058FA7F
:101F200007B0F0BDB80300200038024000100240A6
:101F300000180240000C024000140240001C024045
:101F400000080240214B1A6C42F0100270B588B0B4
:101F50001A641B6C054601A903A803F01003029341
:101F6000029B09F0D1FE069B4BBB09F0BDFE184E4B
:101F7000184B336040F2E733F360174BB0FBF3F3D9
:101F8000013B3046736000233361B360B3610AF0F4
:101F90002BFB044680B930460AF0F0F9044658B9E4
:101FA000362008F00FF80F2D0DD82246294636208E
:101FB00007F0D6FF094B1D60204608B070BD09F040
:101FC00093FE4000D3E70124F6E700BF003802404B
:101FD000BC0300200010004040420F0040000020E1
:101FE0007047FEE7FEE7FEE7FEE7704701480AF0AC
:101FF00007BA00BFC001002001480AF001BA00BFC3
:10200000BC030020014808F0E8BF00BF58020020D0
:10201000014808F00CB900BF5403002001207047AC
:1020200008B533F0EDFF162303604FF0FF3008BD15
:1020300008B533F0E5FF16230360FEE770B50D46E3
:1020400014460E46731B9C4201DC204670BDAFF364
:10205000008006F8010BF5E770B50D4614460E46F4
:10206000731B9C4201DC204670BD16F8010BAFF3D8
:102070000080F5E74FF0FF3070474FF40053002029
:102080004B60704701207047002070470B4A0346A1
:10209000116810B509B90A491160106809490A4C5C
:1020A0000344091B8B4206D933F0AAFF0C230360BB
:1020B0004FF0FF3010BD1360FCE700BF08040020A4
:1020C000E09D012000000520000A0000704700008C
:1020D000DFF834D0002103E00C4B5B58435004314F
:1020E0000B480C4B42189A42F6D30B4A02E00023ED
:1020F00042F8043B094B9A42F9D307F001FE33F052
:1021000085FFFFF78DF970470000052000C5030823
:10211000000000202801002028010020E09D01206F
:10212000FEE7704708B501F031F9BDE8084001F05D
:10213000B3B801F02DB940687047416070470000A6
:102140004FF0E022D2F8FC3D43F08073C2F8FC3D32
:10215000054B064AD3F8B01F0A43C3F8B02F1A68DC
:1021600042F001021A607047001000E055CEACC585
:10217000521A02EB5302B2FBF3F07047014B58685E
:10218000704700BF001000E0704710B504460C21F6
:1021900032F029FC204610BD036810B51B690446C7
:1021A00031B19847A26863689B1A0344636010BD0D
:1021B0009847A060FBE70000024B7020024A1360C2
:1021C000DB681847140000200C040020704710B58D
:1021D0000446042132F007FC204610BD73B50E4EB4
:1021E0000D461446336813B9002002B070BD1B6958
:1021F000702098470028F7D03368702001AA0DF1AD
:1022000006015B699847BDF8043001202B60BDF8DA
:1022100006302360E9E700BF0C0400207FB50123EE
:102220008DF817204FF47A72CDE901320DF11702C3
:1022300000920A460146054808F0FEFB10B103482B
:1022400008F0E0FB07B05DF804FB00BF00030020CE
:102250007FB500230A464FF47A718DF817300123B9
:10226000CDE901310DF1170100910146054808F053
:10227000BDFC10B1034808F0C5FB9DF8170007B07E
:102280005DF804FB00030020032823D8DFE800F0FA
:10229000020B131A104B102110481A68B2FA82F27E
:1022A000520908F019BA0C4B40215A68B2FA82F26E
:1022B00052090B48F5E7084B80219A68B2FA82F27E
:1022C0005209F6E7044B40210648DA68B2FA82F276
:1022D0005209E6E7704700BF1004002000040240E6
:1022E0000008024000180240032823D8DFE800F06D
:1022F000020B131A104B102110481A68003A18BF2D
:10230000012208F0E9B90C4B40215A68003A18BF85
:1023100001220B48F5E7084B80219A68003A18BF64
:102320000122F6E7044B40210648DA68003A18BF5C
:102330000122E6E7704700BF1004002000040240BD
:10234000000802400018024003280FD8DFE800F020
:102350000206090B1021064808F0C3B940210548C0
:10236000FAE78021FBE740210348F5E7704700BF0B
:1023700000040240000802400018024008B503288B
:1023800013D8DFE800F0020A0D0F1021084808F00A
:102390009DF9431E5842584108BD40210548F6E7C3
:1023A0008021FBE740210448F1E70020F1E700BF6E
:1023B00000040240000802400018024070B5084DB9
:1023C00000240126E0B2FFF7D9FF18B12B68012BDA
:1023D00018BF2E6001340435052CF3D170BD00BF49
:1023E00010040020012380F8781080F879307047BD
:1023F0000020704741640039024B18BF0121197059
:10240000704700BFA791012000207047836B0BB17C
:102410000846184770474FF6FF70704740680368DA
:102420009B6918477047000038B5044601F0FEF874
:10243000084923682046084DD3F88C30984700237C
:10244000284684F84A30FFF77BFE0123256184F893
:10245000703038BD000000C02004002001F08AB8B0
:1024600001F08EB870B501F00BF910490023C1F8E6
:102470008430BFF34F8FD1F8803043F6E074C3F35C
:10248000C900C3F34E335B0103EA0406024646EA81
:102490008275013AC1F87452F9D2203B13F1200F32
:1024A000F2D1BFF34F8FBFF36F8F70BD00ED00E02F
:1024B00001F0E8B801F03AB801F00ABA01F012BA36
:1024C00001F03EB810B504461AF002FE236820461B
:1024D000D3F8AC30BDE8104018471AF057B810B523
:1024E00004467C2132F07FFA204610BD90F834106B
:1024F0000D4B10B590F878401A788C4209D03AB953
:102500000A490B4A08881488108001220C801A702E
:1025100010BD002AFCD0064A0449148808880C80A3
:1025200010800022F3E700BFA09101209E910120BE
:102530009C91012070B50D46194635B9094B40F202
:10254000D221094A094833F08BF9C0E90F52003A09
:10255000074B18BF01221A700368BDE87040D3F81A
:102560008C301847CB6D0308036E0308516E0308C7
:10257000A691012008B5094B1B888B4203D8084B54
:102580001B88934205D9074B9E21074A074833F021
:1025900067F9074B1980074B1A8008BD9C910120F1
:1025A0009E910120966E0308F96E0308516E030890
:1025B000A2910120A4910120034690F87A0018B15D
:1025C000586803681B68184770470000014608B543
:1025D000034B186801B101211AF094FD012008BDD8
:1025E000A8910120034B00225A609A60024A1A60A7
:1025F000704700BF200400202C9E03080121002208
:1026000008B508460AF0DAFA0A4B186028B90A4BEE
:1026100028210A4A0A4833F023F900220421012024
:102620000AF096FB074B186018B9074B2C21034A98
:10263000F0E708BD300400203C6F0308856F0308F5
:10264000B46F03082C0400201B700308024B4FF0EA
:10265000FF3118680AF00ABB30040020014B1868EB
:102660000AF040BB30040020024B002118680AF039
:10267000FDBA00BF30040020FFF7F0BF002303487D
:1026800003491A4600680AF0A9BB00BF2C040020C9
:102690000800002013B50023074C01A91A46206842
:1026A0000AF0DEFB4FF0FF33002201A920680AF098
:1026B000D7FB02B010BD00BF2C04002003685B6C88
:1026C00018470120704703689B6A18470D4B82B07A
:1026D0001A6B42F400021A631A6B02F400020192B0
:1026E000019A1A6942F400021A611A6922F400027E
:1026F0001A61054B054A1A614FF08062044B9A60DB
:1027000002B0704700380240540300209D290008A1
:1027100000E100E040F2EF3070470000054B4FF061
:1027200080620360044BC3F88820BFF34F8FBFF370
:102730006F8F7047449F030800E100E010B5044626
:102740004FF45A61FFF7EAFF204632F04CF9204679
:1027500010BD000008B50A2809D8DFE800F006100F
:102760000E080808081010101000022008BD054BC4
:102770008621054A054833F073F80020F6E701206A
:10278000F4E700BF5D70030878700308C3700308A6
:1027900038B50C46887FFFF7DDFF174BA58AE28A24
:1027A000586342EA054221695A64628BD963521B1D
:1027B0001A642568082D0ED19A611A6158620F4A71
:1027C000207F42EA0062DA61E2681A620C4A5961CB
:1027D000D9601A6038BD0022D8611A61E1680A0A1E
:1027E0004809C1F3C40102F4784200F4FC600243DA
:1027F0000A439A63034AECE700B002400900010073
:10280000010202000102030008B50B280BD8DFE823
:1028100000F00612100A0A0A0A080808080802202E
:1028200008BD0520FCE7054B6521054A054833F046
:1028300017F80020F4E70120F2E700BF5D700308FD
:1028400028710308C37003082DE9F04191F81D8039
:102850000C464046FFF7D8FFA77F05463846FFF7EE
:10286000D3FF06463846FFF775FFA18A628B434BBC
:10287000521A1A649A61228B521A1A61E28A5863B8
:1028800042EA014221695A646268D963DA602068C9
:10289000802828D0227F0FD8202866D0402864D0F6
:1028A00004281AD045EA0265344BB84545F4003592
:1028B000DD6160D0324A44E0B0F5807F04D0B0F5ED
:1028C000007FEFD12F4800E02F4840EA0262DA6132
:1028D000E2681A625E62596132E045EA026242F4DD
:1028E0000032DA61F6E7A068021DDA62227F45EA6B
:1028F000026545F40035DD615E625961017841B1E0
:10290000012921D0214B4FF48871214A214832F00E
:10291000A7FFDA69418822F47F42013922F01002D0
:1029200042EA01220121DA61144BDA6942F0200205
:10293000DA61DA699206FCD410229A600029B9D0D3
:10294000154A1A60BDE8F081B2F1FF01DA694088EA
:1029500022F47F4218BF0121013822F0100242EA1E
:10296000002242F01002DA61DEE745EA0262034B20
:1029700042F40032B5E740F20122E2E700B0024043
:1029800001020100090002000A000200727103083E
:102990008C710308C370030801020200024B1B681C
:1029A000586803685B691847A891012070B5044610
:1029B0000A4B0C3000262546602260602672667243
:1029C00045F8203B29461AF0F3FC04F55A63EE6003
:1029D00024359D42FBD1204670BD00BF449F0308B3
:1029E000034B1A68D207FCD423229A60704700BFB9
:1029F00000B0024030B5104C2568ED07FCD423250B
:102A00000904FF2BA56041F001014FF00205656349
:102A10006164E0630AD00949656241EA0363E361E6
:102A2000074B22626061E060236030BDE561039B7B
:102A3000A363044BF8E700BF00B0024009000100A7
:102A400001000200010003004069704790F8440053
:102A50007047036B23B9C06A003818BF0120704764
:102A60000120704780687047043010B50C460FC8CD
:102A700084E80F0010BD704708B5034A40F21221E8
:102A8000024B034832F0ECFECA7103087588030854
:102A90002572030810B50446482131F0A4FF2046F2
:102AA00010BD00002DE9F0431C46436BADF51F7DC2
:102AB00005460E461746002B37D0002203A8DFF844
:102AC000A890CDE9013212F0B7FA4FF4F472502118
:102AD000249024A80CF065FA3A46314624A80DF05B
:102AE000AFF9012124A80CF057FB022324A88DF88C
:102AF000D8300CF0F2FBBDF898322B9ABDF89C62EE
:102B00009342A89F28BF1346419A964203EB43087D
:102B1000A7EB430728BF1646479B9E4209D824A827
:102B20000CF05CFB24A80CF089FA0DF51F7DBDE8C4
:102B3000F083012201A924A80CF018FC6B6B03EBB5
:102B40000800984201D83C44E6E759789A78C900D1
:102B500009EA022201F4FC610A4313F8031B42EA6A
:102B6000D10224F8022BECE700F8FFFF0A4A0260CA
:102B70000022C0E90522C0E90722C0E90922C0E914
:102B80000B22C0E90D12C0E90F2280F84420C0E9F1
:102B90000322C0E901227047949F030810B40C4639
:102BA00011461A46036B3BB1036C806BE41A204458
:102BB0005DF8044B33F01AB9C06AF8E7036B10B53F
:102BC00073B1036C826BC91A5318525C98785C78A5
:102BD0000004DB7840EA0420104340EA036010BDA3
:102BE000C36A5858FBE7036B43B1036CC91A836B84
:102BF0005A18585C527840EA02207047C36A585A03
:102C00007047000070B50446006B0D461646D8B1FB
:102C1000E36B934208D209230D4A65210D4884F8DD
:102C200044300D4B32F01CFE0368DB689847206B84
:102C30003246A16B03681B69984710B90D2384F8CD
:102C40004430A06B256470BDE06A0844FBE700BF18
:102C5000A972030825720308967203082DE9F84348
:102C6000436904462BB9234BAA21234A234832F057
:102C7000F7FD08228169FFF7C5FFA16943F230061D
:102C800046F2643704312046FFF798FFA3691844E1
:102C9000A36A00F108029A4206D30123002063616F
:102CA000236AA361BDE8F883636909300822013310
:102CB00020F0010120466361A161FFF7A3FFD4F872
:102CC000189020464946FFF78EFF09F10201804621
:102CD0002046FFF788FF09F1040105462046FFF76B
:102CE0006DFFB045D2D1BD42D0D10028CED0012059
:102CF000D8E700BFEB72030834730308257203089A
:102D00002DE9F04F0446ADF51F7D8A4616468169D0
:102D100008229846FFF776FFA7692046391DFFF77E
:102D20004DFF07F10801024605462046FFF76AFFFE
:102D3000636B074633B93C4B40F2AB113B4A3C480E
:102D400032F08EFD002203A8CDE9013212F074F9B1
:102D50004FF4F4725021249024A80CF022F92A4652
:102D6000394624A80DF06CF8012124A80CF014FABF
:102D7000022324A88DF8D8300CF0AFFABAF902502B
:102D8000479BAB4229D3BAF900904FEA4808BAF8FA
:102D900004702B9B08FB05664F44BAF80250DFF81D
:102DA00094B03FB29F4228BF1F46BAF8063009EBE5
:102DB000490A1D44419B2DB29D4228BF1D46479B99
:102DC0009D4210D824A80CF009FA24A80CF036F97A
:102DD00001200DF51F7DBDE8F08F012201A924A877
:102DE0000CF0C4FACCE7012201A924A80CF0BEFA29
:102DF000626B49465244B94202F1030201D3464490
:102E0000DDE712F8020C12F8013CC0000BEA0323C4
:102E100000F4FC60034312F8030C43EAD00326F8E5
:102E200011300131E7E700BF67730308BD73030882
:102E30002572030800F8FFFF0129036838BF01214C
:102E4000DB6A70B50D4604469847A84204D2236851
:102E50002046DB6A984705466B1EE669102220462D
:102E600006EB031606F10801FFF7CCFE06F1100190
:102E70002046FFF7A3FE236A043B0344C4E905533D
:102E800070BD0000002148222DE9F0410446816117
:102E900080F84410FFF7B6FEA6690423624A314663
:102EA0002046FFF77BFE40B10323604AF22184F8FD
:102EB00044305F4B5F4832F0D3FC06F10801042335
:102EC0005D4A2046A161FFF769FE30B10423574AED
:102ED000FA2184F84430594BECE706F10C01042345
:102EE000574A2046A161FFF759FE074638B105232E
:102EF0004E4A40F2011184F84430524BDAE706F1B1
:102F000010012046FFF75AFE054620B94E4B40F20D
:102F10000711464ACEE706F1140804234B4A20461F
:102F20004146FFF73BFE002849D0062384F8443091
:102F30000423474A06F118012046FFF72FFE002818
:102F40003FD0072384F844304544424F0C222046AA
:102F50002946FFF757FE05F1080604233A462046A6
:102F60003146FFF71BFE94F84430002848D0002B70
:102F700048D1A36AAB4249D805F10C030435204679
:102F8000A3612946FFF71AFE3044294660622046B5
:102F9000FFF714FE0644042220463146FFF732FEB6
:102FA00004232D4A31462046FFF7F8FD002838D18A
:102FB0000123E6616361A3692362BDE8F081012713
:102FC000B6E7002FC0D006F120012046FFF7F6FD3E
:102FD0004FF47A7306F13001B0FBF3F060602046E5
:102FE000FFF7ECFD06F14001A0602046FFF7E6FD8B
:102FF00006F14401E0602046FFF7E0FD2061A3E711
:10300000002BB9D00A2384F84430D6E7291D204686
:10301000FFF7D4FD85190C2220462946FFF7F2FD63
:1030200099E70B23EFE700BF177403083574030813
:103030001C7403082572030862740308677403088C
:103040007F740308847403089A740308A674030841
:10305000AB740308B0740308B5740308C0E90A210F
:1030600000220263FFF70EBF10B500230446084696
:10307000E3620B6821639B689847A0622046BDE825
:103080001040FFF7FFBEF0B4069FBDF81050BDF82A
:10309000146032B12BB10495CDE90567F0BCFFF7A0
:1030A00001BDF0BC704700002DE9F04F994643691F
:1030B00085B004460F4690462BB9294B7721294A03
:1030C000294832F0CDFB08228169FFF79BFDA669F4
:1030D00020463146FFF787FDB11C83462046FFF7A7
:1030E00082FD311D82462046FFF768FD06F108018A
:1030F000A36A05460A189A4226D243F230039B453A
:1031000017D146F264339A4513D190B10246A161BA
:103110002046FFF777FD0E9B01462A462046CDF854
:103120000080CDE901933B46FFF7ADFF63690133B2
:103130006361A3692B4405B908330133626A23F044
:1031400001039342A36109D1012301206361236A32
:10315000A36180F0010005B0BDE8F08F0020F8E722
:10316000EB720308BA740308257203080120704744
:103170000C2070470C2303FB0100083070470C2320
:1031800003FB0100083070470120704743F62820F8
:10319000704743F6282303FB01000830704743F6CD
:1031A000282303FB010008307047012070471020DE
:1031B000704700EB01100830704700EB0110083039
:1031C0007047084600F026BF034B10B50446036065
:1031D00018F034FF204610BD3CA0030810B504468B
:1031E000FFF7F2FF1421204631F0FDFB204610BD11
:1031F000034B10B50446036018F020FF204610BDB5
:1032000008A0030810B50446FFF7F2FF43F630218B
:10321000204631F0E8FB204610BD0000034B10B5FE
:103220000446036018F00AFF204610BDD49F03082F
:1032300010B50446FFF7F2FF1821204631F0D3FB0A
:10324000204610BD094B10B50446036000F56950D7
:103250001C30FFF7B9FF04F12C00FFF7C9FF04F1A0
:103260001400FFF7DBFF204610BD00BF70A003086D
:1032700008B50248FFF7E6FF08BD00BF00130020B5
:1032800010B50446FFF7DEFF43F6D831204631F093
:10329000AAFB204610BD00002DE9F34100F034FDEB
:1032A0000024054600F034FD234601462246284608
:1032B000009423F0EBF9274B274A2046274D1A604C
:1032C00003F092F9264B274A27489A6023F046F9E3
:1032D0002B68BFF35B8FDB0736D4284631F085FBC4
:1032E00090B3224C224F234B04F1140007F1200627
:1032F00004F12C0823606060C4F80880E760266150
:1033000018F09EFE1C4B4046636118F099FE1B4B63
:103310003846E36218F094FE04F54053184A03F56A
:103320002760C3F85C2A03F0E3F9224607F1140191
:10333000304603F0D3F9304600F06CFE114832F00D
:10334000ADFA284631F05DFB0F4802B0BDE8F04110
:10335000FFF76AB80C920120B0040020FC12002094
:10336000D0040020B40400200C0000200013002032
:103370005C4D002070A00308D49F030808A0030838
:103380003CA003087132000834040020704700009C
:10339000014819F064B900BF3404002070B5244E10
:1033A000244B254C3046254D2360FFF7FFFA284675
:1033B00027F046FC224820F05BFE224B00224FF40F
:1033C000807121481A8683F858205A6683F8702045
:1033D0005A67DC60C3E912121C49C3E91A121C497E
:1033E00099671C490B604FF4F07101801A48018005
:1033F0004FF488711948C3E90422C3E90622C3E9DE
:103400000822C3E90A22C3E90E22C3E91022C3E954
:103410001422C3E91722C3E901650180104883F82B
:10342000342001800F490A700F4A1A6070BD00BF36
:1034300058050020549E0308F8120020D0040020F4
:10344000B4040020340400209C91012001000001FC
:1034500000000101A8910120A29101209E9101206C
:10346000A4910120A09101206C9E03080148FFF760
:1034700055B900BF58050020002070478180704773
:10348000C180704701817047418170477047704724
:1034900070477047704710B4C4880368121B848853
:1034A0005B6D091B12B25DF8044B09B218474FF669
:1034B000FF7383814FF0FF3303621368C3611060B1
:1034C0007047002070478B888380012070477047C9
:1034D00080F82610704790F82600704710B500223B
:1034E000B1F90840B1F90A10028042808480C1809D
:1034F00010BD0022028042808280C2807047017726
:10350000704780ED080A704780F82410704780F8F3
:103510002510704701207047983070478C307047F5
:10352000843070477047704770470000034B90220B
:1035300083F85A2383F85823704700BF00E100E066
:10354000094A0A49D3680A48C3F30A03013B9BB2FC
:103550000B801169C1F30A01013901801364536BB7
:1035600043F001035363704700680140DA4E0020C6
:10357000D84E0020014BD3F8AC00704700680140E2
:10358000024B0122C3F8AC105A6270470068014038
:10359000124A5369DB0370B51ED50023C2F884308C
:1035A000BFF34F8FD2F8803043F6E074C3F3C90005
:1035B000C3F34E335B0103EA0406014646EA817514
:1035C0000139C2F87452F9D2203B13F1200FF2D125
:1035D000BFF34F8FBFF36F8F70BD00BF00ED00E0F2
:1035E00070473823002201FB0333C25490F838306F
:1035F0000BB9036C83647047704780F84C107047B8
:1036000010B50446582131F0EEF9204610BD10B532
:1036100004462C2131F0E7F9204610BD10B50446D0
:10362000BC2131F0E0F9204610BD000038B5044659
:1036300019F001F823685D6E1FF0ECFB014620468F
:10364000A8472368084A2046D3F888500023A2F5EB
:103650007F31A847054B064A5A60064A1A649A64A5
:103660004FF4FF225A6438BD00F807C09C4F002079
:10367000F44F002000F40BC018F0C4BF18F0CEBF08
:1036800018F08ABF19F0F9B890F8252012B1036834
:103690005B6918477047000008B531B1044B40F230
:1036A0009711044A044832F0DBF890F8390008BD5D
:1036B0001575030829750308B676030810B531B1EE
:1036C000064B40F29111064A064832F0C9F84068AC
:1036D00011460368BDE810401B6B184715750308B9
:1036E000F8760308B676030808B529B1034B7A21AA
:1036F000034A044832F0B4F8006908BD15750308A0
:10370000A9780308B676030808B529B1054B8321CB
:10371000054A064832F0A4F841618160C0E90632EA
:1037200008BD00BF15750308617A0308B676030863
:1037300010B5044629B1274BA421274A274832F067
:103740008FF8052A34D8DFE802F003292F34393EF8
:10375000406803681B69984750B34FF0FF31606DB4
:1037600009F0D0F90023012294F83E1084F83B3090
:1037700084F83920A360636101B1226284F83E308D
:103780006362E36A2BB90123206D84F83A3009F0B3
:10379000A9FA606DBDE8104009F0E4B9002380F893
:1037A000393084F83E3003E00362002383604361D4
:1037B00010BD0362002383604361F2E7002380F8B9
:1037C00039300123EDE7003B18BF012380F83D307D
:1037D000EEE700BF15750308207C0308B6760308E2
:1037E00090F825201AB190F8242002B11860704793
:1037F00070B50446164629B1314BE721314A3248AB
:1038000032F02EF890F8393033B1304B1B6893F812
:103810006B20436913444361E36A002B4DD0E16997
:10382000D4E905325343A2684A43934220D2236A23
:10383000002B42D04FF0FF31606D09F063F9236A2D
:103840000BB10023E362E36AFBB90125606D09F067
:1038500089F994F839300BB9236A3BB1E36A2BB983
:103860000123206D84F83A3009F03CFA284670BDF7
:1038700094F84C000028DDD09B1AB3FBF1F299427A
:1038800098BF02F1FF326262D4E7002294F83C5004
:10389000A3623046E262E2682261A2680132A2605D
:1038A000336333685B699847002DCED194F83D307F
:1038B000002BCBD184F83950C8E70125C9E700BFF8
:1038C00015750308F77D0308B6760308A891012053
:1038D000034B4FF080629A604FF080729A6070479D
:1038E00000E100E0084B4FF08062C3F88820BFF38E
:1038F0004F8FBFF36F8F4FF08072C3F88820BFF3F4
:103900004F8FBFF36F8F704700E100E038B503467B
:1039100090F8380038BB01229860D8609A634FF461
:10392000807258619A874FF4F0729861D86118627A
:1039300058629862D8621863586383F83E00CA865A
:103940004FF4887281F834000A8708639A6C186112
:1039500002F5FF24D3E9101529448C420AD9084BFB
:103960005821084A03E0084B40F2F511074A08487D
:1039700031F076FF1A6302F57F329C645A6338BDDA
:1039800055810308958103089B7F0308CB7F0308BB
:10399000B6760308002370B5124E05468380124B9D
:1039A0000360336893F858200AB1D86C00B998685E
:1039B0000368DB6A98473368B0FA80F4D86C64090E
:1039C00030B10368DB6A9847002808BF44F001045F
:1039D0002CB9064B2C21064A064831F041FF2846F7
:1039E00070BD00BFA891012084A003083B83030899
:1039F00099830308D283030870B5244E3568BFF35A
:103A00005B8F15F001053FD1304630F0EEFF002806
:103A10003AD01F4C1F4B04F134002561E584A562A8
:103A2000A585C4E90035C4E9025520F080FD04F104
:103A300058001BF075FD184B2046A365174B40F846
:103A4000843BFFF7A7FF164B1648C4F88430243395
:103A5000C4F89050C4F88C306423C4F89C50C4F867
:103A6000A850C4E928350023C4F8AC30C4F8B030FD
:103A7000C4F8B430C4F8B8300B4BC4F8983031F007
:103A80000DFF304630F0BDFF014870BDDC4E002018
:103A9000E04E0020A4B50308A4A003081CA103085D
:103AA00058B503082935000838B5030810B5144C7B
:103AB000236823B3134B144A1B6C11888B4213D118
:103AC000124B198807F014FB226892F86A30013310
:103AD00082F86A30FEF7D2FD206819F0F9FA00206A
:103AE000BDE81040FEF7D0BB07F002FB206803687A
:103AF0001B6A98470020BDE81040FEF7F5BB10BDDB
:103B0000A891012000680140DA4E0020D84E002024
:103B10002DE9F74304464FF4707894F83A304FF0AB
:103B2000FF31002B31D0606D08F0ECFF276BA36AEA
:103B3000BB4200D1676B266A656856B32B68314675
:103B400028465B6A98470023236284F83B30606D07
:103B500009F008F82B684FF4F0723946CDF8008070
:103B600028465E694FF48873B0474FF0FF31064630
:103B7000606D08F0C7FF94F83B30E3B1002384F890
:103B80003B30606D08F0EEFFC7E7206D09F06EF87E
:103B9000C3E7636A002BDAD02B682846D3E9099380
:103BA0009847616A01442846C847A368626A66620A
:103BB0001344A360CBE7E7625EB12B6828469B6A9B
:103BC000984701380023E06084F83C6084F83A307C
:103BD000D7E70120F6E70000014808B5FFF798FF96
:103BE0009C4F00200368042270B504465E6A0023DF
:103BF0000D46B0474FF0FF31606D08F083FF38236A
:103C000003FB0542D16A09B10021D16203FB0545DE
:103C1000012385F83B30002385F83930606DBDE81D
:103C2000704008F09FBF38B500EB810304460D4695
:103C3000114658680368DB68984729462046FFF715
:103C4000D1FF38BD70B50D461146044600EB850224
:103C50005068026896681A46B04729462046FFF722
:103C6000C1FF70BD38B5164900251648FEF77EFF26
:103C7000154C164B01202A46294623604FF48073C9
:103C8000A564A38784F84C0084F83E50C4E910551D
:103C9000C4E91455C4E90155C4E90355C4E90555FF
:103CA000C4E90755C4E90955C4E90B55C4E90D55E4
:103CB00008F084FF2065284608F0E0FE606538BD06
:103CC0003C500020F44F00209C4F002068A10308C6
:103CD000704710B50446042130F085FE204610BD23
:103CE000012908B506D0022908D059B902F0C8FC4C
:103CF000006808BD02F0C4FC4068FAE702F0C0FCAE
:103D00008068F6E70020F4E700487047B4A1030894
:103D10000120704713B5002451B1036801AA019432
:103D20008DF803409C680DF10303A04702B010BD5D
:103D30000846FBE7C0897047008A7047C088704713
:103D400080887047807A00F07F007047807AC009D1
:103D500070470020704700009FED010A704700BFC8
:103D600000000000704710B50446082130F03BFE0B
:103D7000204610BD7047704700F598730868496881
:103D800003C3704770477047416070477047704782
:103D9000064BC0F84801C0F84C310023C0F8503140
:103DA00000F5A273C0F84031704700BF513E0008D3
:103DB000012303727047704710B441680346C2681C
:103DC0009B68541001EB6200D20748BF0A595DF8A6
:103DD000044B48BFD35818470346406830B19A682F
:103DE0001AB9D86800F0010070470120704710B57B
:103DF00004460C2130F0F7FD204610BD10B50446F6
:103E0000102130F0F0FD204610BD10B504464FF4EF
:103E1000AE7130F0E8FD204610BD10B51EF0FAFF7F
:103E20000368BDE81040DB6B184710B50446D0F8B6
:103E3000400158B10368DB68984738B1D4F84001B5
:103E400003689B6898470023C4F8403110BD000008
:103E50002DE9F14FD0E9556A0746B06803681B6A3F
:103E6000984743F62723984205D8444BA321444A58
:103E7000444831F0F5FC706803681B6A98470F28C6
:103E800003D8414BA4213E4AF2E7F06803681B6A5D
:103E900098470B2803D83D4BA521394AE8E7DFF8BE
:103EA000F4901EF0B7FF04301EF0D9FFD9F80000DF
:103EB00010B10368DB689847D9F8000010B10368B7
:103EC0001B689847DFF8D080D8F8000010B103686D
:103ED0005B699847D7F83C0110B103685B68984765
:103EE000D8F8000010B103681B689847D7F83C0168
:103EF00010B103689B689847F06800214FF0000BF1
:103F000003685B6A9847224B0446C0F804B080F807
:103F100008B059460360B06803685B6A9847054675
:103F200002F050FC7068594603685B6A9847064681
:103F3000294602F025FC331DC7F83C612846C9F824
:103F40000040C8F80050CAF800302B68C6F808A036
:103F5000DB68EE639847336830461B689847214614
:103F6000284621F015F8236820461B6998472368E6
:103F700020465B6901B0BDE8F04F18473484030860
:103F8000C284030894850308DB8503087E86030842
:103F90004CA20308F0910120EC910120044B1B6816
:103FA00093F858200AB1D86C00B99868704700BFE0
:103FB000A8910120F8B5044617460E461EF0F0FF02
:103FC000104B00251C6029460F4B23600F4BC4E9A2
:103FD00051350F4B1868C4E953550368C4E94F5570
:103FE0009B68C4E955769847284602F0FDFAFFF72A
:103FF000D5FF28F056FCFFF7D1FF28F0CDFC204676
:10400000F8BD00BFFC910120F8A10308E0A103085E
:10401000A8910120064BC0F84801C0F84C3100239C
:10402000C0F8503100F5A273C0F84031704700BFAE
:10403000513E0008406A7047806A704770478B881D
:10404000C069DB0A0A6850F823001044704710B5B5
:104050000446BAB1107B68B1537BD27A1B0203F4D9
:10406000E0631A43236A03EB82031A888A4202D16F
:1040700093F9020010BD05D80138043380B200283E
:10408000F3D1F7E70020F5E710B504462C2130F016
:10409000AAFC204610BD000030B58BB00446BDF828
:1040A00060500895BDF85C5007959DF850500695F6
:1040B0009DF84C5005959DF8485004959DF8445046
:1040C00003959DF8405002959DF83C500195BDF830
:1040D0003850009520F0E8FA064B20462360159BE7
:1040E000E361169B2362199B63621A9BA3620BB068
:1040F00030BD00BF70A20308806A704770477047E8
:1041000070477047704730B585B003680446018139
:104110006D460146D3F884303C342846984795E8EC
:10412000070084E8070005B030BD30B585B00368EE
:10413000044641816D460146D3F884303C3428461C
:10414000984795E8070084E8070005B030BD0022D5
:10415000028042808280C280704780F836107047AB
:10416000036870B504461B6B1546984723682046C4
:1041700029465B6EBDE8704018470020704700225A
:104180004FF0FF318260C0E900217047806C7047BA
:104190007047704770477047704770477047704767
:1041A000704700F5CC531033994270B504460D4664
:1041B00002D10368DB6A984704F5D75318339D4250
:1041C00003D1236820461B6B984704F5D05308336E
:1041D0009D4203D1236820465B6B984704F5D45376
:1041E0009D4205D1236820469B6BBDE8704018476F
:1041F00070BD90F82C304BB100F16C021268C265B2
:104200003BB100F174031B680366704700F168025C
:10421000F4E700F17003F6E730B444680346C2687F
:104220009B68551004EB6200D20748BF625930BC4E
:1042300048BFD35818470346406830B19A681AB946
:10424000D86800F0010070470120704790F82D30C9
:1042500080F85A30704710B504464C2130F0C3FB4B
:10426000204610BD10B504464C2130F0BCFB204662
:1042700010BD10B50446782130F0B5FB204610BDC6
:1042800010B50446102130F0AEFB204610BD0B895E
:104290008A89D21A4B89C98812B2591A09B21FF0F9
:1042A000B3BE10B50446D1E90E231AF0F6FD204640
:1042B00010BD0000034B10B5044603601DF0B2F8BA
:1042C000204610BDFCA40308064B10B5044603604D
:1042D0001DF0A8F843F6AC11204630F084FB2046D0
:1042E00010BD00BFFCA4030808B5FFF7CDF908BD59
:1042F00010B50446006B50B10368DB68984730B1D5
:10430000206B21460368BDE810409B68184710BD2C
:1043100070B50446806C0D4658B10368DB68984759
:1043200038B1A06C2A4621460368BDE870409B68FE
:10433000184770BD036870B55E6B0446114B8DB2B3
:104340001B682BB9104B6C21104A114831F088FAC8
:104350001049828D0988914203D80F4B6D210B4A79
:10436000F3E713F812200D4B1B6853F82200036883
:104370001B6B9847291A3346204609B2BDE87040A6
:10438000184700BF009201202187030863870308B4
:104390009E87030804920120E58703080892012004
:1043A0000B7970B504460D4690F82C600BB916B128
:1043B00070BD002EFCD0B3FA83F320465B0984F86D
:1043C0002C302368D3F88C309847236820465B69EB
:1043D0009847002EECD02B79012BE9D12368204699
:1043E000D3F88830BDE870401847036870B50446BC
:1043F0001B6B154698472368204629465B6BBDE832
:104400007040184770B504461D46BDF91060FFF7AF
:10441000ECFF2368294620469B6B9847236831466A
:104420002046DB6BBDE87040184700000022C0E961
:104430000122C0E90322C0E90522C0E907224FF4A6
:1044400080728284014A0260704700BFD8A20308CC
:1044500010B504462622002131F0C0FC2046FFF7AB
:10446000E5FF044B20462360FF2384F82630002319
:10447000A36210BDFCB8030838B504460D46FFF72B
:1044800089FA034B2046E56023602433A36038BDDE
:1044900058B503084A09064BC16003EA112302F428
:1044A000FC62C1F3C40113430B430382704700BF96
:1044B00000F8FFFFA0F10800ECE700BF10B50446CC
:1044C0002622002131F08AFC2046FFF7AFFF0A4B7D
:1044D0004FF47F0220462360084BA3624FF6FF7320
:1044E000A3850023C4E90C324FF0FF322387E36336
:1044F000C4E9102310BD00BF6CB80308D0A10308A5
:1045000010B50446FFF7DAFF024B20462360002374
:10451000A36410BD40A3030810B504461AF0F6FAD0
:1045200000232046A364012384F82430014B236038
:1045300010BD00BFD0A303084FF47F4370B583853F
:1045400040F201130025064683840446114B856220
:104550000563C0E90155C0E90355C0E90555C0E947
:10456000075546F8343B3046FFF772FF0A4B2A46A0
:104570002946304663632566A4F86450C4E91A5599
:10458000C4E91C55FFF731FF2046314617F06AFD9C
:10459000204670BD48A4030864B9030852014901CC
:1045A0001BF07EBA520149011BF085BA10B4C46BEE
:1045B0004A01B4EB411F04D05DF8044BC2631BF009
:1045C00079B95DF8044B7047F0EE407AC16BFEEEAE
:1045D000ED7A17EE902A8A4203D0C0ED0F7A1BF0D5
:1045E00069B9704710B40367019B5DF8044B4367DA
:1045F0000368C0E91A12D3F88C3018472DE9F04F40
:104600000446ADF50F7D002520F016FBA046DD4BDE
:1046100004F16C074FF6FF76E56304F53A7A48F843
:10462000403B4046FFF714FF262229463846ADF8A6
:10463000306231F0D3FB384604F55B79FFF7F6FEC4
:10464000D14B8CA93846E36604F1040BBDF8303237
:1046500084F894604FF48876A4F892301BF0DCFF65
:1046600004F1980318464B931AF050FA04F1E00352
:10467000294618464C93FFF7FFFE04F1F403184651
:1046800044931AF043FA04F59E73294618464D9355
:10469000FFF7F2FE04F5A873184645931AF036FAB0
:1046A00004F5CC73294618464E93FFF7E5FE04F552
:1046B000D673184646931AF029FA04F5FA73294678
:1046C00018464F93FFF7D8FE04F502731846479338
:1046D0001AF01CFA04F51473294618465093FFF794
:1046E000CBFE04F51973184606931BF0C3F804F5C6
:1046F0003573294618465193FFF7BEFE50461BF00E
:10470000B9F804F55673294618465293FFF7B4FEDC
:1047100048461BF0AFF804F57773294618465393C3
:10472000FFF7AAFE04F57C7318460F93FFF7E8FE27
:1047300004F23C4318461093FFF7E2FE04F5916340
:10474000184607931BF096F804F59F632946184610
:104750005493FFF791FE04F20C53184608931BF094
:1047600089F804F27C53294618465593FFF784FED6
:1047700004F5B263184609931BF07CF804F5C06396
:10478000294618465693FFF777FE04F2146318463D
:104790004893FFF7B5FE04F5CC6318464993FFF73D
:1047A000AFFE04F2AC6318460A931BF063F804F200
:1047B0001C73294618465793FFF75EFE04F5E6631F
:1047C00018465893FFF7A8FE04F27C732946184652
:1047D0005993FFF751FE04F5F26318465A93FFF719
:1047E0009BFE04F2DC73294618465B93FFF744FEF8
:1047F00004F5FE6318465C93FFF78EFE04F63C0357
:10480000294618465D93FFF737FE04F50563184601
:104810005E93FFF781FE04F69C03294618465F93DA
:10482000FFF72AFE04F50B6318466093FFF774FE4A
:1048300004F6FC03294618466193FFF71DFE04F5B4
:10484000116318466293FFF767FE04F65C1329466E
:1048500018466393FFF710FE04F517631846649338
:10486000FFF75AFE04F6BC13294618466593FFF776
:1048700003FE04F51D6318466693FFF74DFE04F62C
:104880001C23294618466793FFF7F6FD04F52363BA
:1048900018466893FFF740FE04F67C232946184625
:1048A0006993FFF7E9FD04F5296318466A93FFF75A
:1048B00033FE04F6DC23294618466B93FFF7DCFD34
:1048C00004F52F6318466C93FFF726FE04F63C337D
:1048D000294618466D93FFF7CFFD04F5356318465A
:1048E0006E93FFF719FE04F69C33294618466F9322
:1048F000FFF7C2FD04F53B6318467093FFF70CFE0B
:1049000004F6FC33294618467193FFF7B5FD04F50C
:10491000416318467293FFF7FFFD04F65C43294696
:1049200018467393FFF7A8FD04F547631846749380
:10493000FFF7F2FD04F6BC43294618467593FFF7CE
:104940009BFD04F54D6318467693FFF7E5FD04F6ED
:104950001C53294618467793FFF78EFD04F55363E1
:1049600018467893FFF7D8FD04F67C53294618467D
:104970007993FFF781FD04F5596318467A93FFF7A1
:10498000CBFD03E0FCA40308CCB9030804F6DC5318
:10499000294618467B93FFF76FFD04F55F631846C1
:1049A0007C93FFF7B9FD04F63C63294618467D93D6
:1049B000FFF762FD04F5656318467E93FFF7ACFDD3
:1049C00004F69C63294618467F93FFF755FD04F5CE
:1049D0006B6318468093FFF79FFD04F6FC6329463E
:1049E00018468193FFF748FD04F5716318468293DA
:1049F000FFF792FD04F65C73294618468393FFF790
:104A00003BFD04F5776318468493FFF785FD04F6B4
:104A1000BC73294618468593FFF72EFD04F57D6388
:104A200018468693FFF778FD04F5805329461C331A
:104A300018461193FFF720FD04F5815310331846F3
:104A40001293FFF769FD04F5835329461C3318467A
:104A50001393FFF711FD04F5845310331846149394
:104A6000FFF75AFD04F5865329461C331846159363
:104A7000FFF702FD04F58753103318461693FFF72E
:104A80004BFD04F5895329461C3318461793FFF74D
:104A9000F3FC04F58A53103318461893FFF73CFDD6
:104AA00004F58C5329461C3318461993FFF7E4FC90
:104AB00004F58D53103318461A93FFF72DFD04F5B6
:104AC0008F5329461C3318461B93FFF7D5FC04F57A
:104AD0009053103318461C93FFF71EFD04F59253B4
:104AE00029461C3318461D93FFF7C6FC04F5935363
:104AF000103318461E93FFF70FFD04F59553294612
:104B00001C3318461F93FFF7B7FC04F59653103378
:104B100018462093FFF700FD04F5985329461C33EF
:104B200018462193FFF7A8FC04F599531033184653
:104B30002293FFF7F1FC04F59B5329461C331846DA
:104B40002393FFF799FC04F59C53103318462493E4
:104B5000FFF7E2FC04F59E5329461C3318462593C3
:104B6000FFF78AFC04F59F53103318462693FFF78E
:104B7000D3FC04F5A15329461C3318462793FFF7AD
:104B80007BFC04F5A253103318462893FFF7C4FCAE
:104B900004F5A45329461C3318462993FFF76CFCEF
:104BA00004F5A553103318462A93FFF7B5FC04F516
:104BB000A75329461C3318462B93FFF75DFC04F5D9
:104BC000A853103318462C93FFF7A6FC04F5AA53FC
:104BD00029461C3318462D93FFF74EFC04F5AB53C2
:104BE000103318462E93FFF797FC04F5AD53294672
:104BF0001C3318462F93FFF73FFC04F5AE531033D8
:104C000018463093FFF788FC04F5B05329461C334F
:104C100018463193FFF730FC04F5B15310331846B2
:104C20003293FFF779FC04F5B35329461C33184639
:104C30003393FFF721FC04F5B45310331846349333
:104C4000FFF76AFC04F5B65329461C331846359322
:104C5000FFF712FC04F5B753103318463693FFF7ED
:104C60005BFC04F5B95329461C3318463793FFF70C
:104C700003FC04F5BA53103318463893FFF74CFC85
:104C800004F5BC5329461C3318463993FFF7F4FB4F
:104C900004F5BD53103318463A93FFF73DFC04F575
:104CA000BF5329461C3318463B93FFF7E5FB04F539
:104CB000C053103318463C93FFF72EFC04F5C25343
:104CC00029461C3318463D93FFF7D6FB04F5C35322
:104CD000103318463E93FFF71FFC04F5C5532946D1
:104CE0001C3318463F93FFF7C7FB04F5C653103338
:104CF00018464093FFF710FC04F5C85329461C33AF
:104D000018464193FFF7B8FB04F5C9531033184612
:104D10004293FFF701FC04F5CB5329461C33184698
:104D20004393FFF7A9FB04F5CC53103318460B93BC
:104D3000FFF702FC04F5D053083318460C93FFF735
:104D4000FBFB04F5D45318464A93FFF7F5FB04F533
:104D5000D753183318460D93FFF7EEFB04F5DB53DA
:104D6000103318460393FFF7A9FB04F5DD531833FE
:104D700018460493FFF7A2FB04F5E05318460E9380
:104D8000FFF79CFB04F5E253083318460593FFF741
:104D900095FB04F5E4531033184602931AF06AFDAC
:104DA00004F5E853294618468793FFF765FB04F599
:104DB0004053D34A04F5EB504FF4E151C3F8A049F6
:104DC000C3F89C291C30CF4AC3F8A859C3F8A429BA
:104DD0001CF01EFB2A4640464FF4F073294600960D
:104DE000FFF710FB4FF07F4341465846A3664FF450
:104DF000085817F037F92A4638462946FFF7F5FADA
:104E000038468CA9ADF830521BF006FC394658469E
:104E10004FF4286717F026F92A464FF4F073294615
:104E20004B980096FFF7EEFA4FF4F0534FF07F41A6
:104E30004C98C4F8D070C4F8D850C4E931384FF455
:104E4000DC53C4F8CC30A3F51853C4F8D430FFF7C2
:104E500021FB4C9A4B995846C4F8C02017F002F930
:104E60004FF4F0732A46294644980096FFF7CAFA91
:104E70004FF4F052A44BB4214498C4E948284FF4AD
:104E8000DC52C4F828211022C4E94B37C4F834217D
:104E900019F054FE4FF0FF314D98FFF7FBFA4D9A91
:104EA00044995846C4F81C2117F0DCF84FF4F0730D
:104EB0002A46294645980096FFF7A4FA4FF4F05287
:104EC0004FF45C63B4214598C4F88431A3F5C25310
:104ED000C4E95F281022C4E96237C4F8902119F0B0
:104EE0002DFE4FF0FF314E98FFF7D4FA4E9A4599B8
:104EF0005846C4F8782117F0B5F84FF4F0732A46F5
:104F0000294646980096FFF77DFA4FF4F0524FF489
:104F1000C853B4214698C4F8E031A3F50E53C4E950
:104F200076281022C4E97937C4F8EC2119F006FE7E
:104F30004FF0FF314F98FFF7ADFA4F9A4699584618
:104F4000C4F8D42184F8D15117F08CF84FF4F073E1
:104F50002A4629464798009688AEFFF753FA4FF441
:104F6000F0524FF49653B4214798C4F83C32A3F55D
:104F7000EA53C4E98D2810224FF01408C4F84822DF
:104F8000C4E9903719F0DAFD4FF0FF3150980A2745
:104F9000FFF780FA509B47995846C4F8303284F89E
:104FA0002D5217F05FF84346E6224FF4E071069861
:104FB000CDF80080FFF726FA4FF0FF315198FFF748
:104FC00069FA519B2A460A21C4F88C320698FFF7E9
:104FD000E5FA32220A210698FFF7E4FA0221069840
:104FE000FFF7E4FA012106981AF070FD0699584679
:104FF00084F8895217F036F84346F52250464FF4AC
:10500000AA71CDF80080FFF7FDF94FF0FF315298FB
:10501000FFF740FA529B50462A46C4F810330A2143
:10502000FFF7BCFA322250460A21FFF7BBFA50467E
:105030000221FFF7BBFA504601211AF047FD514605
:10504000584684F80D5317F00DF84346EB224846B6
:105050004FF4AA71CDF80080FFF7D4F94FF0FF317B
:10506000539804F5E85AFFF715FA539B48462A4629
:10507000C4F894330A21FFF791FA322248460A21F4
:10508000FFF790FA48460221C244FFF78FFA4846DC
:1050900001211AF01BFD4946584684F8915316F039
:1050A000E1FFFA2221234FF4DE710F980097FFF7FA
:1050B000A9F94FF0FF330F993046C4F82034D4F8E3
:1050C000F033A4F82454D3F884309847DFF8509094
:1050D00004F22C4396E8070083E80700D9F8003073
:1050E0002BB90A4B60210A4A0A4830F0B9FB0A4B37
:1050F0001B88052B16D8094B6121054AF4E700BF30
:10510000E4A40308A341000880F5FFFF21870308FA
:10511000238803089E87030804920120E58703087B
:1051200000920120D44B0521186801F099FAD34A66
:1051300003463946504621F003FA0923C4F838A43F
:105140008CA9DFF840A30F98ADF83432CDF830A227
:105150001BF006F90F99584616F084FF21234FF4EF
:1051600082724FF4B17110980097FFF74BF94FF02E
:10517000FF32D4F83C3430461099D3F88430C4F868
:105180006C24A4F87054984704F58F6396E80700E0
:1051900004F5E95683E80700D9F800300836002BFB
:1051A0009FD0B74A1388042BA5D9B34B04211868A4
:1051B00001F056FAB14A03463946304621F0C0F9AB
:1051C00008238CA91098C4F88464DC26ADF8343226
:1051D000CDF830A21BF0C4F81099584616F042FFE3
:1051E00043463222E62107984FF019080096FFF750
:1051F00009F94FF0FF315498FFF74CF954992A46BA
:105200000798C4F8B0143946FFF7C8F93246394652
:105210000798FFF7C7F9B6EE000A07989B26FFF735
:10522000D3F9012107981AF051FC0799584616F056
:1052300019FF33467322552108980096FFF7E2F8CC
:105240004FF0FF315598FFF725F9559932460898E8
:10525000C4F834153146FFF7A1F92A4629460898C3
:10526000FFF7A0F9B6EE000A0898FFF7ADF90121A3
:1052700008981AF02BFC0899584616F0F3FE3346AE
:105280007322F02109980096FFF7BCF84FF0FF3128
:105290005698FFF7FFF856992A460998C4F8B815AA
:1052A0003146FFF77BF9324629460998FFF77AF92C
:1052B000B6EE000A099804F5E956FFF785F90121D1
:1052C00009981C361AF002FC0999584616F0CAFED5
:1052D0004FF4827329462A464898CDF80080FFF79C
:1052E00091F84FF07F41D9F80030C4F844164FF0E0
:1052F000FF31A4F84856C4F85056C4F85416C4F800
:105300005856002B3FF4EDAE5D4A13880A2B7FF60A
:10531000F2AE3946584F386801F0A2F9574A0346B1
:105320001021304621F00CF90B238CA94898C4F8C1
:105330005C6604F5EA56ADF83432CDF830A21BF0C5
:105340000FF84899584616F08DFE4FF48273424686
:10535000002149981C36CDF80080FFF753F84FF034
:105360007F43A4F89456C4F890364FF0FF33C4F846
:105370009C56C4F8A036D9F80030C4F8A456002BC7
:105380003FF4AFAE3E4A1388062B7FF6B4AE06213B
:10539000386801F065F9394A0346102130464FF468
:1053A000A07721F0CDF807238CA94998C4F8A86606
:1053B0004FF43459ADF8343204F58056CDF830A2AC
:1053C0001AF0CEFF4999584616F04CFE32234A2275
:1053D0000A9800931F214FF4D2734FF0140AFFF77D
:1053E00011F857984FF0FF31FFF754F8579B42469A
:1053F0000A98C4F8D4360021FFF7D0F842460A983C
:105400004FF4D271FFF7CEF80A9801214FF005084A
:10541000FFF7CCF80A9801211AF058FB0A99584670
:1054200084F8D15616F01EFE53465922514658981C
:10543000CDF800A0FEF7E6FF5998C4F85C774FF06E
:10544000FF31C4F86077C4F86477C4F87057C4F8C3
:105450006857C4F86C97FFF71DF8599B5899584640
:10546000C4F8583784F8555716F0FCFD53465922B6
:1054700051465A9808E000BF0C920120A2990308F7
:1054800004920120D0A10308CDF800A0FEF7BAFFD6
:105490005B98C4F8BC774FF0FF31C4F8C077C4F80C
:1054A000C477C4F8D057C4F8C857C4F8CC97FEF7EF
:1054B000F1FF5B9B5A995846C4F8B83784F8B55742
:1054C00016F0D0FD5346592251465C98CDF800A005
:1054D000FEF798FF5D98C4F81C784FF0FF31C4F8D0
:1054E0002078C4F82478C4F83058C4F82858C4F890
:1054F0002C98FEF7CFFF5D9B5C995846C4F818388E
:1055000084F8155816F0AEFD5346592251465E9860
:10551000CDF800A0FEF776FF5F98C4F87C784FF0D6
:10552000FF31C4F88078C4F88478C4F89058C4F87F
:105530008858C4F88C98FEF7ADFF5F9B5E9958467B
:10554000C4F8783884F8755816F08CFD5346592203
:1055500051466098CDF800A0FEF754FF6198C4F85A
:10556000DC784FF0FF31C4F8E078C4F8E478C4F890
:10557000F058C4F8E858C4F8EC98FEF78BFF619B2C
:1055800060995846C4F8D83884F8D55816F06AFDA2
:105590005346592251466298CDF800A0FEF732FFDB
:1055A0006398C4F83C794FF0FF31C4F84079C4F8EF
:1055B0004479C4F85059C4F84859C4F84C99FEF7D6
:1055C00069FF639B62995846C4F8383984F83559A5
:1055D00016F048FD5346592251466498CDF800A074
:1055E000FEF710FF6598C4F89C794FF0FF31C4F8BE
:1055F000A079C4F8A479C4F8B059C4F8A859C4F87B
:10560000AC99FEF747FF659B64995846C4F89839F2
:1056100084F8955916F026FD53465922514666984E
:10562000CDF800A0FEF7EEFE6798C4F8FC794FF0C5
:10563000FF31C4F8007AC4F8047AC4F8105AC4F8E8
:10564000085AC4F80C9AFEF725FF679B66995846DE
:10565000C4F8F83984F8F55916F004FD5346592278
:1056600051466898CDF800A0FEF7CCFE6998C4F8C2
:105670005C7A4FF0FF31C4F8607AC4F8647AC4F8F9
:10568000705AC4F8685AC4F86C9AFEF703FF699B15
:1056900068995846C4F8583A84F8555A16F0E2FC0E
:1056A0005346592251466A98CDF800A0FEF7AAFE4B
:1056B0006B98C4F8BC7A4FF0FF31C4F8C07AC4F8D4
:1056C000C47AC4F8D05AC4F8C85AC4F8CC9AFEF7C1
:1056D000E1FE6B9B6A995846C4F8B83A84F8B55A0B
:1056E00016F0C0FC5346592251466C98CDF800A0E4
:1056F000FEF788FE6D98C4F81C7B4FF0FF31C4F8AC
:10570000207BC4F8247BC4F8305BC4F8285BC4F861
:105710002C9BFEF7BFFE6D9B6C995846C4F8183B56
:1057200084F8155B16F09EFC5346592251466E983C
:10573000CDF800A0FEF766FE6F98C4F87C7B4FF0B2
:10574000FF31C4F8807BC4F8847BC4F8905BC4F854
:10575000885BC4F88C9BFEF79DFE6F9B6E99584644
:10576000C4F8783B84F8755B16F07CFC53465922EC
:1057700051467098CDF800A0FEF744FE7198C4F829
:10578000DC7B4FF0FF31C4F8E07BC4F8E47BC4F865
:10579000F05BC4F8E85BC4F8EC9BFEF77BFE719B02
:1057A00070995846C4F8D83B84F8D55B16F05AFC7B
:1057B0005346592251467298CDF800A0FEF722FEBA
:1057C0007398C4F83C7C4FF0FF31C4F8407CC4F8B7
:1057D000447CC4F8505CC4F8485CC4F84C9CFEF7A8
:1057E00059FE739B72995846C4F8383C84F8355C6E
:1057F00016F038FC5346592251467498CDF800A053
:10580000FEF700FE7598C4F89C7C4FF0FF31C4F899
:10581000A07CC4F8A47CC4F8B05CC4F8A85CC4F84C
:10582000AC9CFEF737FE759B74995846C4F8983CBB
:1058300084F8955C16F016FC53465922514676982A
:10584000CDF800A0FEF7DEFD7798C4F8FC7C4FF0A1
:10585000FF31C4F8007DC4F8047DC4F8105DC4F8BD
:10586000085DC4F80C9DFEF715FE779B76995846A7
:10587000C4F8F83C84F8F55C16F0F4FB5346592262
:1058800051467898CDF800A0FEF7BCFD7998C4F891
:105890005C7D4FF0FF31C4F8607DC4F8647DC4F8CE
:1058A000705DC4F8685DC4F86C9DFEF7F3FD799BEC
:1058B00078995846C4F8583D84F8555D16F0D2FBE7
:1058C0005346592251467A98CDF800A0FEF79AFD2A
:1058D0007B98C4F8BC7D4FF0FF31C4F8C07DC4F89C
:1058E000C47DC4F8D05DC4F8C85DC4F8CC9DFEF793
:1058F000D1FD7B9B7A995846C4F8B83D84F8B55DD4
:1059000016F0B0FB5346592251467C98CDF800A0C2
:10591000FEF778FD7D98C4F81C7E4FF0FF31C4F887
:10592000207EC4F8247EC4F8305EC4F8285EC4F833
:105930002C9EFEF7AFFD7D9B7C995846C4F8183E1F
:1059400084F8155E16F08EFB5346592251467E9818
:10595000CDF800A0FEF756FD7F98C4F87C7E4FF08E
:10596000FF31C4F8807EC4F8847EC4F8905EC4F829
:10597000885EC4F88C9EFEF78DFD7F9B7E9958460D
:10598000C4F8783E84F8755E16F06CFB53465922D5
:1059900051468098CDF800A0FEF734FD8198C4F8F8
:1059A000DC7E4FF0FF31C4F8E07EC4F8E47EC4F83A
:1059B000F05EC4F8E85EC4F8EC9EFEF76BFD819BD8
:1059C00080995846C4F8D83E84F8D55E16F04AFB54
:1059D0005346592251468298CDF800A0FEF712FD99
:1059E0008398C4F83C7F4FF0FF31C4F8407FC4F87F
:1059F000447FC4F8505FC4F8485FC4F84C9FFEF77A
:105A000049FD839B82995846C4F8383F84F8355F36
:105A100016F028FB5346592251468498CDF800A031
:105A2000FEF7F0FC8598C4F89C7F4FF0FF31C4F876
:105A3000A07FC4F8A47FC4F8B05FC4F8A85FC4F81E
:105A4000AC9FFEF727FD859B84995846C4F8983F84
:105A500084F8955F16F006FB534659225146869806
:105A6000CDF800A0FEF7CEFCC4F8FC7F11984FF0F3
:105A7000FF313561C6E90259C6E90077FEF70AFD34
:105A8000119B86995846C4F8F83F84F8F55F16F0E4
:105A9000E9FA5346592251461298CDF800A0FEF774
:105AA000B1FC139877664FF0FF313567C6E91A5994
:105AB000C6E91777FEF7EEFC139B12995846B365BB
:105AC00086F8555016F0CEFA53465922514614988E
:105AD000CDF800A0FEF796FC1598C6F8C4704FF0FC
